S00C00004750494F2E73726563E9
S113000045C0000060C000005EC000005CC000008D
S11300105AC0000095C0000056C00000A4C00000F3
S113002052C0000050C000004EC000004CC0000090
S11300304AC0000048C0000046C0000044C00000A0
S113004042C0000040C000003EC000003CC00000B0
S11300503AC0000038C0000036C0000034C00000C0
S113006032C0000030C000002EC000002CC00000D0
S11300702AC0000028C0000026C0000024C00000E0
S113008022C0000020C000001EC0000011241FBEBA
S1130090CFEFD0E1DEBFCDBF11E0A0E0B1E0E6E8F4
S11300A0F1E000E00BBF02C007900D92A231B1074E
S11300B0D9F721E0A2E1B1E001C01D92A431B20759
S11300C0E1F702D05EC09CCFCF93DF93CDB7DEB70C
S11300D062970FB6F894DEBF0FBECDBF82E1E0E0B9
S11300E0F1E0DE01119601900D928A95E1F78FEF10
S11300F08ABB12B882E38ABF80E589BF88BF78943F
S113010080911201E1E0F0E0EC0FFD1FE80FF11D1A
S113011080818BBB8091130181110BC080911201EE
S11301208F5F8093120180911201823110F010923E
S113013012018FE493EC0197F1F700C00000E0CFC7
S11301401F920F920FB60F9211248F93F89481E0AF
S1130150809313011092120178948F910F900FBE27
S11301600F901F9018951F920F920FB60F921124A3
S1130170F8941092130178940F900FBE0F901F9073
S10901801895F894FFCF6E
S11301863F065B4F666D7C077F67777C395E7971C6
S10501960880DB
S9030000FC
