:1000000045C0000058C0000056C0000054C00000A9
:1000100052C0000050C000004EC000004CC00000A4
:100020004AC0000048C0000046C0000044C00000B4
:1000300042C0000040C000003EC000003CC00000C4
:100040003AC0000038C0000036C0000034C00000D4
:1000500032C0000030C000002EC000002CC00000E4
:100060002AC0000028C0000026C0000024C00000F4
:1000700022C0000020C000001EC000001CC0000004
:100080001AC0000018C0000016C0000011241FBED6
:10009000CFEFD0E1DEBFCDBF11E0A0E0B1E0EAE6F6
:1000A000F5E000E00BBF02C007900D92A633B10748
:1000B000D9F702D158C2A4CFE5E6F0E09081916073
:1000C000908390819D7F908390819460908390E154
:1000D0009A95F1F700C085BB80E18A95F1F700C0E1
:1000E00080818B7F80830895E5E6F0E090819E7F9C
:1000F000908390819D7F908390819460908390E124
:100100009A95F1F700C085BB80E18A95F1F700C0B0
:1001100080818B7F80830895CFDF89EF90E0019706
:10012000F1F700C000000895CF93DF93EC0102C007
:10013000F3DF219688818111FBCFDF91CF91089564
:1001400090E4899F600D1124862F8068CDCF08959B
:1001500081E0CADF83EF91E00197F1F700C0000072
:10016000089588E3C1DF83EF91E00197F1F700C0C4
:10017000000088E3B9DF83EF91E00197F1F700C059
:10018000000088E3B1DF83EF91E00197F1F700C051
:1001900000008CE0A9DF83EF91E00197F1F700C048
:1001A000000086E0A1DF83EF91E00197F1F700C046
:1001B0000000CECF08958EEF82B91BB888E18AB9CE
:1001C00086E0809395001092900083E089B90895AD
:1001D00088EF8ABB87E08BBB08955D9BFECF8CB90F
:1001E0008BB180628BB9089588E08BBB83E397E085
:1001F0000197F1F7C89948C0C99948C0CA9948C041
:100200001BBAEFEFF7E43197F1F700C0000080E18F
:100210008BBB83E397E00197F1F7C8993BC0C9997D
:100220003BC0CA993BC01BBAEFEFF7E43197F1F737
:1002300000C0000080E28BBB83E397E00197F1F7F9
:10024000C8992EC0C9992EC0CA992EC01BBAEFEF0B
:10025000F7E43197F1F700C0000080E48BBB83E343
:1002600097E00197F1F7C89921C0C99921C099B3C6
:10027000892F847092FD1EC01BBAEFEFF7E431970F
:10028000F1F700C00000089581E3089582E3089526
:1002900083E3089584E3089585E3089586E308954C
:1002A00087E3089588E3089589E308958AE208952D
:1002B00080E3089583E20895CF93DF93CDB7DEB74F
:1002C000AE970FB6F894DEBF0FBECDBF86E1EFE16B
:1002D000F1E0DE01119601900D928A95E1F780E13F
:1002E000E8E0F1E0DE01579601900D928A95E1F782
:1002F00062DF6EDF81E38BA782E38CA783E38DA7A8
:1003000084E38EA780E287BB80EF81BB87B38068E0
:1003100087BB8FB58A608FBD8EB589618EBD109207
:100320007A001DBC1CBC8FEF84BB8FE080936400FF
:1003300018DF0EDFE12CF12C10E0C12CD12C00E0F5
:1003400004C02FEFC21AD20A48DFE1E0F0E0EC0F60
:10035000FD1FEC0DFD1D80818111F3CFC12CD12C2F
:1003600084E0C816D10430F53FDF811102C0E12CD2
:10037000F12C8823A9F3E114F10491F7E7E2F0E00E
:10038000EC0FFD1FEC0DFD1D80839FEFC91AD90AEC
:100390008AE223DFEE24E394F12CE2CFE7E2F0E0FF
:1003A000EC0FFD1FEC0DFD1D808117DFEFEFCE1A66
:1003B000DE0A02C0C12CD12CF4E0CF16D10474F3B4
:1003C0008DE00BDF8AE009DFC12CD12C0BC0EBE202
:1003D000F0E0EC0FFD1FEC0DFD1D8081FEDE2FEF28
:1003E000C21AD20A84E0C816D1048CF38DE0F5DE7F
:1003F0008AE0F3DE80E090E011C0E7E2F0E0EC0F8D
:10040000FD1FE80FF91F3081EBE2F0E0EC0FFD1F5C
:10041000E80FF91F2081321307C00196843091053F
:1004200060F380E090E002C081E090E0892B09F069
:1004300056C084E6D2DE80E011C0E12FF0E0E0504B
:10044000FF4F908192BB1F5F183008F010E0EFEF74
:10045000F7E43197F1F700C000008F5F803368F355
:1004600060E080E06DDE88E191E05EDEC12CD12CA1
:100470002FC0E02FF0E0EE0FFF1F81E090E08C0F27
:100480009D1FE80FF91F2689378940E050E060E0A2
:1004900070E880E790E029D037BD26BD86B597B5D6
:1004A0009695879596958795909379008093780097
:1004B0000F5F093008F000E09FEFEFE3F2E09150AA
:1004C000E040F040E1F700C000002FEFC21AD20A6E
:1004D00089E0C816D10468F238CF019602C080E0E6
:1004E00090E084309105C8F385CF052E97FB16F474
:1004F00000940FD057FD05D014D007FC02D046F46D
:1005000008C050954095309521953F4F4F4F5F4F14
:10051000089590958095709561957F4F8F4F9F4F6F
:100520000895A1E21A2EAA1BBB1BFD010DC0AA1F34
:10053000BB1FEE1FFF1FA217B307E407F50720F04C
:10054000A21BB30BE40BF50B661F771F881F991FC7
:100550001A9469F760957095809590959B01AC0110
:0A056000BD01CF010895F894FFCF0C
:10056A009080C040602030100B024B029302BA0206
:10057A000F037003DB031604204F50454E20000D75
:10058A000A20496E736572742050617373776F72B3
:06059A0064203A2000007D
:00000001FF
