S015000054696D65725F436F756E7465722E73726563CF
S113000045C0000060C000005EC000005CC000008D
S11300105AC000009DC0000056C0000054C000003B
S113002052C000006BC000004EC000004CC0000075
S11300304AC0000048C0000046C0000044C00000A0
S113004042C0000040C000003EC000003CC00000B0
S11300503AC0000038C0000036C0000034C00000C0
S113006032C0000030C000002EC000002CC00000D0
S11300702AC0000028C0000026C0000024C00000E0
S113008022C0000020C000001EC0000011241FBEBA
S1130090CFEFD0E1DEBFCDBF11E0A0E0B1E0E4E8F6
S11300A0F1E000E00BBF02C007900D92A031B10750
S11300B0D9F721E0A0E1B1E001C01D92A331B2075C
S11300C0E1F702D05DC09CCF8FEF8ABB12B885E008
S11300D085BD80E983BD80E887BF86B7806886BF19
S11300E083E08ABF80E189BF88BF7894E0911201E0
S11300F0F0E0E050FF4F80818BBBF8CF1F920F924E
S11301000FB60F9211248F93F89483B5805783BD53
S1130110809110018F5F80931001823391F480915C
S1130120110181110CC080911201803118F01092DC
S1130130120105C0809112018F5F80931201109209
S1130140100178948F910F900FBE0F901F90189507
S11301501F920F920FB60F9211248F93F8948091EF
S11301601101811104C081E08093110102C0109239
S1130170110178948F910F900FBE0F901F901895D6
S1070180F894FFCF1D
S11301843F065B4F666D7D077F6F777C395E7971BF
S9030000FC
