S01200004B6579706164546573742E7372656314
S113000045C0000058C0000056C0000054C00000A5
S113001052C0000050C000004EC000004CC00000A0
S11300204AC0000048C0000046C0000044C00000B0
S113003042C0000040C000003EC000003CC00000C0
S11300403AC0000038C0000036C0000034C00000D0
S113005032C0000030C000002EC000002CC00000E0
S11300602AC0000028C0000026C0000024C00000F0
S113007022C0000020C000001EC000001CC0000000
S11300801AC0000018C0000016C0000011241FBED2
S1130090CFEFD0E1DEBFCDBF11E0A0E0B1E0E8EEEC
S11300A0F1E000E00BBF02C007900D92A431B1074C
S11300B0D9F775D097C0A4CF88E08BBB83E397E0D2
S11300C00197F1F7C89947C0C99948C0CA9949C06E
S11300D01BBA8FEF97E40197F1F700C0000080E1AD
S11300E08BBB83E397E00197F1F7C8993DC0C999A9
S11300F03EC0CA993FC01BBA8FEF97E40197F1F74E
S113010000C0000080E28BBB83E397E00197F1F726
S1130110C89933C0C99934C0CA9935C01BBA8FEF86
S113012097E40197F1F700C0000080E48BBB83E300
S113013097E00197F1F7C89929C0C9992AC0CA99CB
S11301402BC01BBA8FEF97E40197F1F700C00000B2
S113015080E090E0089581E090E0089582E090E0EE
S1130160089583E090E0089584E090E0089585E0A8
S113017090E0089586E090E0089587E090E0089587
S113018088E090E0089589E090E0089580E090E0B0
S1130190089580E090E0089580E090E00895CF9382
S11301A0DF93CDB7DEB764970FB6F894DEBF0FBE0A
S11301B0CDBF84E1E0E0F1E0DE01119601900D9203
S11301C08A95E1F788EF8ABB8FEF81BB75DF880FD3
S11301D0991FE1E0F0E0EC0FFD1FE80FF91F8081AB
S10B01E082BBF4CFF894FFCFB9
S11301E83F0006005B004F0066006D007D000700BD
S10701F87F006F0011
S9030000FC
